{"abi":[{"type":"receive","stateMutability":"payable"},{"type":"function","name":"sendFil","inputs":[{"name":"target","type":"bytes","internalType":"bytes"}],"outputs":[],"stateMutability":"payable"},{"type":"error","name":"ForwardFailed","inputs":[{"name":"data","type":"bytes","internalType":"bytes"}]}],"bytecode":{"object":"0x608060405234801561000f575f80fd5b5061047d8061001d5f395ff3fe608060405260043610610021575f3560e01c80637062f3051461002c57610028565b3661002857005b5f80fd5b610046600480360381019061004191906101f2565b610048565b005b5f80345f805f67ffffffffffffffff8111156100675761006661023d565b5b6040519080825280601f01601f1916602001820160405280156100995781602001600182028036833780820191505090505b5087876040516020016100b29796959493929190610368565b60405160208183030381529060405290505f8073fe0000000000000000000000000000000000000373ffffffffffffffffffffffffffffffffffffffff16836040516100fe9190610411565b5f60405180830381855af49150503d805f8114610136576040519150601f19603f3d011682016040523d82523d5f602084013e61013b565b606091505b50915091508161018257806040517f641918df0000000000000000000000000000000000000000000000000000000081526004016101799190610427565b60405180910390fd5b5050505050565b5f80fd5b5f80fd5b5f80fd5b5f80fd5b5f80fd5b5f8083601f8401126101b2576101b1610191565b5b8235905067ffffffffffffffff8111156101cf576101ce610195565b5b6020830191508360018202830111156101eb576101ea610199565b5b9250929050565b5f806020838503121561020857610207610189565b5b5f83013567ffffffffffffffff8111156102255761022461018d565b5b6102318582860161019d565b92509250509250929050565b7f4e487b71000000000000000000000000000000000000000000000000000000005f52604160045260245ffd5b5f67ffffffffffffffff82169050919050565b6102868161026a565b82525050565b5f819050919050565b61029e8161028c565b82525050565b5f81519050919050565b5f82825260208201905092915050565b5f5b838110156102db5780820151818401526020810190506102c0565b5f8484015250505050565b5f601f19601f8301169050919050565b5f610300826102a4565b61030a81856102ae565b935061031a8185602086016102be565b610323816102e6565b840191505092915050565b828183375f83830152505050565b5f61034783856102ae565b935061035483858461032e565b61035d836102e6565b840190509392505050565b5f60c08201905061037b5f83018a61027d565b6103886020830189610295565b610395604083018861027d565b6103a2606083018761027d565b81810360808301526103b481866102f6565b905081810360a08301526103c981848661033c565b905098975050505050505050565b5f81905092915050565b5f6103eb826102a4565b6103f581856103d7565b93506104058185602086016102be565b80840191505092915050565b5f61041c82846103e1565b915081905092915050565b5f6020820190508181035f83015261043f81846102f6565b90509291505056fea264697066735822122047ef92fd53ae7fe4c3358baeed84c76b20520d388d09549468f93a8c6351046664736f6c63430008140033","linkReferences":{}},"methodIdentifiers":{"sendFil(bytes)":"7062f305"},"id":0}